:020000040800F2
:1000000028050020191700080D1600081116000811
:1000100000000000000000000000000000000000E0
:10002000000000000000000000000000151600089D
:100030000000000000000000171600081916000854
:10004000870900087F0A0008E71000080B1600085F
:10005000C7160008D3160008411700084317000808
:100060004517000847170008491700084B170008F4
:100070004D1700084F1700085117000853170008C4
:100080005517000857170008591700085B17000894
:100090005D1700085F170008611700086317000864
:1000A0006517000867170008691700086B17000834
:1000B0006D1700086F170008711700087317000804
:1000C000F8B584B00400002C01D101209EE2207814
:1000D000C00768D50C20B8490A680240042A0BD032
:1000E0000A681040082810D10868C0214902014060
:1000F00080204002814208D1B0480068800352D578
:10010000606800284FD1012080E26068012806D194
:10011000AA480168802252020A43026024E0606813
:10012000002809D1A5480168A54A0A400260016873
:10013000A44A0A40026017E0606805280BD19F4876
:1001400001688022D2020A430260016880225202C2
:100150000A43026008E099480168994A0A4002602F
:100160000168984A0A400260606800280DD000F0DB
:100170006BFB050091480068800314D400F064FB19
:10018000401B6528F6D3032040E200F05DFB05002C
:100190008A480068800306D500F056FB401B65289E
:1001A000F6D3032032E2022620683040002854D0E3
:1001B0000C2081490A680240002A0BD00A681040CE
:1001C000082819D10868C021490201408020000296
:1001D000814211D1794801683140002904D0E16899
:1001E000012901D0012011E20168F822914322691E
:1001F000D2000A43026030E0E06800281AD06F4F56
:10020000386801210143396000F01EFB05003868A1
:100210003040002806D100F017FB401B0328F6D31E
:100220000320F3E13868F82188432169C9000143BC
:10023000396012E0614F386801218843386000F06E
:1002400003FB050038683040002806D000F0FCFAB7
:10025000401B0328F6D30320D8E12078000728D5D7
:10026000E069002812D0A94F3868012101433960A4
:1002700000F0EAFA050038683040002819D100F093
:10028000E3FA401B0328F6D30320BFE19F4F3868F1
:1002900001218843386000F0D7FA05003868304003
:1002A000002806D000F0D0FA401B0328F6D3032024
:1002B000ACE1042720683840002800D18DE0002000
:1002C0006946087080204005BD4909680140002941
:1002D0000AD1BB490A6802430A60096808400390D2
:1002E0000398012069460870B6480068C00514D418
:1002F000B4480068802149000143B248016000F021
:10030000A3FA0500AF480068C00506D400F09CFAC7
:10031000401B6528F6D3032078E1A068012805D1A9
:10032000BB48016801220A43026021E0A06800285E
:1003300009D1B74801680122914301600168042294
:100340009143016014E0A068052808D1B048016815
:1003500039430160016801220A43026008E0AC48A9
:100360000168012291430160016804229143016008
:10037000A06800280FD000F067FA0500A4480068C4
:100380003040002820D100F05FFA401BA14988428C
:10039000F4D303203AE100F057FA05009C480068C6
:1003A0003040002810D000F04FFA401B9949884295
:1003B000F4D303202AE100BF0410024000100240E1
:1003C000FFFFFEFFFFFFFBFF68460078012804D116
:1003D0007B480168904A0A4002602078C00650D5E8
:1003E0006069012822D18D48006807438B48076067
:1003F0008A480068012101438848016000F024FA1E
:100400000500864800683040002806D100F01CFA3C
:10041000401B0328F5D30320F8E080480168F82248
:100420009143A269D2000A4302602AE00421C94331
:10043000606988420BD17948026811400160016807
:10044000F8229143A269D2000A43026019E073487E
:1004500000680743714807607048006801218843BD
:100460006E49086000F0F0F905006C480068304003
:10047000002806D000F0E8F9401B0328F5D303203C
:10048000C4E02078800643D50C20B4490A680240B5
:100490000C2A09D00A68104008280ED1C02040025A
:1004A00009680140814208D15C480068C0032FD52B
:1004B000206A01282CD00120A8E0206A002813D04F
:1004C000564F8026760238683043386000F0BCF919
:1004D00005003868304000281AD100F0B5F9401BFB
:1004E0000328F6D3032091E04C4E30689C4901402C
:1004F000316000F0A9F905003068C00308D500F0AC
:10050000A3F9401B0328F7D303207FE02410024007
:10051000606A002879D0914800680C2101400829C0
:1005200052D0606A022838D18E4F38688E49014017
:10053000396000F089F900908026B60438683040B0
:10054000002807D000F080F90099401A0328F3D35F
:1005500003205BE0854801680F229143226B0A4328
:1005600002607E480168824A0A40E16A1143A26A39
:100570000A4302603868802149040143396000F071
:1005800063F905003868304000283ED100F05CF97E
:10059000401B0328F6D3032038E0724E30687249BE
:1005A0000140316000F050F90500306880012CD521
:1005B00000F04AF9401B0328F7D3032026E000BFD0
:1005C0001C10024000700040606A012801D1012027
:1005D0001CE062480068019064480068029001983D
:1005E000C02149020140A06A81420CD10298000753
:1005F000000F216B884206D10198F0218903014048
:10060000E06A814201D0012000E0002005B0F0BD89
:100610002010024089130000FFFFFFEF341002405A
:10062000F3B581B00400002C01D1012094E0012534
:10063000794E30682840029988420CD230680121F6
:10064000884302990143316030682840029988420A
:1006500001D0012080E002202168014000290FD054
:100660002178490705D53D490A68E023DB0013439B
:100670000B603A490A68F0239A43A36813430B605E
:100680002168294000293BD06168012905D13548FE
:10069000006880031AD401205EE06168022905D158
:1006A00030480068800111D4012055E061680329B9
:1006B00005D15A480068C00308D401204CE02949FC
:1006C00009680840002801D1012045E0234F38681F
:1006D0000321884361680143396000F0B5F8009058
:1006E00038680C21014060688000814208D000F029
:1006F000ABF80099401A4A498842F1D303202BE015
:1007000002983168294088420CD230680121884320
:10071000029901433160306805400298854201D05A
:10072000012019E02078400706D50C4801683D4AB1
:100730000A40E1681143016000F01CF83A49074A99
:10074000126812091207120F895CC8403749086005
:10075000002000F07FF80020FEBD000004100240E1
:10076000FFFFFEFF00100240FFFFFFFE2C100240C3
:10077000FF7FC2FFF0B589B005A82E49102200F016
:1007800091F801A82C49102200F08CF800242000D8
:1007900000942500260026490F680C2139400429C1
:1007A00004D0082904D00C2930D031E0234830E0AF
:1007B0000F2005A9BA0C0240895C0E0001A9204A4D
:1007C00012681040085C0090C020400201003940CF
:1007D00080225202914206D11848009900F07CF81C
:1007E0007043050010E001003940814206D11548F0
:1007F000009900F071F87043050005E00F4800997A
:1008000000F06AF870430500280002E00D4800E09F
:100810000A4809B0F0BD0000002002403410024038
:1008200089130000FFF8FFFF0817000804000020EC
:1008300004100240E8160008F816000800127A00BA
:100840002C100240006CDC0201480068704700BFB9
:100850002401002010B50400FA2080000E49097818
:1008600000F03AF801000D48006800F035F800F09B
:10087000F4F8002801D001200CE0042C09D2002259
:1008800021000020C04300F0DEF80548046000208D
:1008900000E0012010BD00BF08000020040000207F
:1008A0000000002070B4103A03D378C9103A78C021
:1008B000FBD2530701D318C918C001D508C908C015
:1008C000D20704D30B880380891C801C002A01D521
:1008D0000B78037070BC70470022030A8B420BD266
:1008E00003098B4219D243088B422ED2411A00D2FF
:1008F0000146524110467047FF2209023FD01206BE
:100900008B4205D3121209028B4201D31212090243
:1009100003098B4219D300E0090AC3098B4201D3B2
:10092000CB01C01A524183098B4201D38B01C01AFB
:10093000524143098B4201D34B01C01A5241030972
:100940008B4201D30B01C01A5241C3088B4201D321
:10095000CB00C01A524183088B4201D38B00C01ACE
:10096000524143088B4201D34B00C01A5241884286
:1009700000D3401A5241CFD201461046704708B505
:1009800000F07CF808BDFEE7F0B5020052B2002A84
:100990001CD40322344B040064B2A40804256C4325
:1009A0001C59FF251600064008277E43B540AC437E
:1009B0008D01EDB2024008267243954025430200A6
:1009C00052B29208042462439D5022E00F24274A29
:1009D000032305006DB22540083DAD08042675438C
:1009E000060076B23440083CA40804267443165925
:1009F000FF27BC461C00044008277C436746A740ED
:100A0000BE438C01E4B2034008277B439C4034433F
:100A10005451F0BD10B50400601E80214904884285
:100A200001D301200EE0601E11490860032100205F
:100A3000C043FFF7A9FF00200E49086007200E49B8
:100A40000860002010BD70B505000C0016002100E4
:100A5000280040B2FFF798FF70BD10B504002000D9
:100A6000FFF7D8FF10BD000000E400E01CED00E03F
:100A700014E000E018E000E010E000E07047FEE75E
:100A800010B48E4A28234B43D3181861012328241D
:100A90004C431219D36010BC704770B50026350066
:100AA000042D00DBE0E0854C282068432018C06856
:100AB000012800D0D6E0282068432018007D0028B7
:100AC00006D0022860D031D3032800D18AE0C9E0E3
:100AD0000122282068432018818828206843205854
:100AE00000F00AFC0122282068432018C188282031
:100AF0006843205800F000FC00222820684320189A
:100B0000018928206843205800F0F6FB00222820A5
:100B100068432018418928206843205800F0ECFBE6
:100B2000012028216943611808759BE000222820D4
:100B300068432018818828206843205800F0DCFB97
:100B40000122282068432018C188282068432058A3
:100B500000F0D2FB012228206843201801892820B8
:100B60006843205800F0C8FB002228206843201862
:100B7000418928206843205800F0BEFB022028212C
:100B80006943611808756DE0002228206843201829
:100B9000818828206843205800F0AEFB00222820DE
:100BA00068432018C18828206843205800F0A4FB1F
:100BB00001222820684320180189282068432058F2
:100BC00000F09AFB01222820684320184189282040
:100BD0006843205800F090FB0320282169436118E6
:100BE00008753FE0012228206843201881882820CA
:100BF0006843205800F080FB00222820684320181A
:100C0000C18828206843205800F076FB0022282065
:100C100068432018018928206843205800F06CFBA5
:100C20000122282068432018418928206843205841
:100C300000F062FB30002821694361180875282004
:100C4000684320180069401E282169436118086123
:100C50002820684320180069012803DA2820684307
:100C60002018C6606D1C1BE770BD38B50400D14D5F
:100C7000282060432818818B282060432818806929
:100C800000F02DFB2821614369182022895CC0B245
:100C9000814212D0282060432818818B282060438D
:100CA0002818806900F01BFB282161436918202265
:100CB000885421008020FFF7E3FE31BD0C000020A6
:100CC000F8B50024BC480460BC4E34607460B46065
:100CD00000F034FB00F01CF900F074F900F049F961
:100CE000B44DB74F2F600420A8800820E880102062
:100CF000288120206881EC602C6120002875E34861
:100D0000A8618020C000A883A98BA86900F0E7FA39
:100D1000202168546C62AF624020A8858020E8855D
:100D20008020400028868020800068866C63AC6349
:100D300020003C216854D5482864802000014421CB
:100D400068524420295A286C00F0C9FA4821685496
:100D5000EC649027FF052F65012054216852022082
:100D6000562168528020400058216852802080001F
:100D70005A216852EC652C66200064216854C348EF
:100D8000A866802040016C2168526C20295AA86E08
:100D900000F0A5FA702168546C67AF6710207C21C1
:100DA000685220207E2168528020C0008021685235
:100DB000802000028221685284202C5088202C50F0
:100DC00020008C21685428009030BC490160290023
:100DD000943104220A800988006800F080FA982182
:100DE00068549C202C5027003800C0B2042848DAF0
:100DF0003800C0B2282148432818818B3800C0B27F
:100E0000282250432818806900F069FA3900C9B2D5
:100E10002822514369182022895CC0B2814219D12D
:100E20003900C9B20420FFF72BFEFFF736FE012080
:100E300000F094FAFFF731FE012000F08FFAFFF77F
:100E40002CFE012000F08AFAFFF727FE012000F0B7
:100E500085FACDE73800C0B2282148432818818B95
:100E60003800C0B2282250432818806900F037FAB1
:100E70003900C9B2282251436918202288547F1CA6
:100E8000B2E74D480168FA229200914203DB3168D3
:100E9000491C316004603068052813DB00210D20F7
:100EA000FFF7EEFD01210D20FFF7EAFD02210D20E5
:100EB000FFF7E6FD03210D20FFF7E2FD7068401CFF
:100EC0007060346030683B2803D17068401C7060EB
:100ED000346070683B2804D1B068401CB060746016
:100EE0003460B068172802D1B460746034600120A7
:100EF00000F034FA25002800C0B2042805DA2800E2
:100F0000C0B2FFF7B2FE6D1CF5E7FFF7C6FDB8E70C
:100F100030B591B03422002104A800F035FA102237
:100F20000021684600F030FA022404940120079062
:100F3000102008900D94802000020E908020400325
:100F40000F900025109504A8FFF7BAF8002801D0EB
:100F500000F0C6F807200090019402950395012146
:100F60006846FFF75DFB002801D000F0B9F811B02A
:100F700030BD80B55248534901608221490041602B
:100F800000218160C0229200C26001614161802223
:100F9000920082610822C26101624162816207237C
:100FA000C3620163426300F0F9F9002801D000F048
:100FB00097F801BD0C0000201C010020100100204A
:100FC00000040048F8B586B014220021684600F0FD
:100FD000DBF9802109033C4802680A430260026889
:100FE0001140059105998021890202680A43026037
:100FF00002681140059105998021C90202680A43DF
:101000000260026811400591059980214903026838
:101010000A43026000680140059105982B4C0022AC
:1010200021001A4800F068F9294F00223900902069
:10103000C00500F061F9FF26B60000223100254806
:1010400000F05AF9009401240194002502950395BB
:1010500069460E4800F048F8062000901E480190AE
:1010600002956946094800F03FF8009701940295FF
:10107000039569469020C00500F036F8009601946B
:10108000029503956946134802E000BF0008004836
:1010900000F02AF8E0204001009001950295694691
:1010A0000E4800F021F80420009001950295694651
:1010B000024800F019F807B0F0BD0000000C00482D
:1010C000AC0000200038004014100240C1030000B2
:1010D0003387000000040048000012100008004898
:1010E00000B572B6FEE7FEE7FCB502000024086812
:1010F000E040002800D1F1E0012508682E00A6405C
:10110000064001960198002800D1E5E048680128D2
:1011100008D04868022805D04868112802D04868DD
:1011200012281CD1966803208446270002204743DA
:101130006046B8408643CF68BC462000022778430B
:10114000674687403743976056682800A04086432B
:10115000486800092840A040304303005360D76826
:101160000326BC462700022047433000B8406746AC
:1011700087430097886884462700022047436046DB
:10118000B840009F384300900098D060486802281B
:1011900002D04868122820D1E008042358431018D0
:1011A000076A072000970F239C4627000740042367
:1011B0005F436346BB40009F9F43BC460B692700CB
:1011C000384004277843834067463B430093E00858
:1011D000042358431018009B036217682300022061
:1011E00043433000984087434B6833409C4620007F
:1011F00002235843634683403B4313604868C00062
:101200006AD5444807682F4307600068284000906B
:10121000009841488446A708042047436046C059C7
:1012200000900F27BC462700300038400427784341
:10123000674687400098B8439027FF05BA4201D11E
:10124000002512E0354B9A420FD0354B9A4201D11E
:1012500002250AE0334B9A4201D1350005E0324BBA
:101260009A4201D1042500E0052523001E400423F5
:101270005E43B54005432848A30804267343C55080
:101280002A4B1868019EB0434E68F60302D505004C
:10129000019828431860264D2B68019EB3434E6881
:1012A000B60302D51800019B03432B60214D28682B
:1012B000019EB0434E68F60202D503000198184320
:1012C00028601D4D2B68019EB3434E68B60202D5BF
:1012D0001800019B03432B60641C08E7F3BD00B5B5
:1012E000020010690B009BB21840002801D00120B9
:1012F00000E00020C0B200BD00B51300DBB2002B3F
:1013000003D00B009BB2836102E00B009BB28362AF
:1013100000BD000018100240080001400004004811
:1013200000080048000C004800100048000401407C
:1013300004040140080401400C04014080B5064843
:10134000016810220A4302600020FFF783FA00F0D0
:10135000AFF8002002BD00000020024070B504007C
:10136000FFF772FA050026000020C043864202D033
:10137000044800783618FFF767FA401BB042FAD3EA
:1013800070BD00BF0800002010B504000800110067
:101390000200200000F0DCF8200010BDF8B50400C9
:1013A000002C01D101207EE0606A002807D160682E
:1013B00082214900884205D00020E06102E000203F
:1013C000206160610025A5625D20205C002805D1B8
:1013D00028005C216054200000F080F80220010009
:1013E0005D22A1542168096840229143226811605E
:1013F000E1682D4A914201D3290001E08021490191
:10140000F0221201E368934205D0E368E026F6007B
:10141000B34200D0A5620123666882277F0037406F
:10142000BC46A768842636023E4067463E4327698D
:101430003840304366691E400643A0698027BF00DC
:1014400038403043277F38263E4006432020205C2A
:10145000802738403043A66A8027BF013E400643BC
:1014600020680660A069060C042006402420205C49
:101470001027384030433426A65D08273E400643F7
:10148000E068024032438020400108401043226857
:1014900050602068C069054A02402068C261256624
:1014A0005D2023540020F2BD01070000FFF7FFFF7D
:1014B00081B0012021490A6802430A600968084096
:1014C00000900098802040051D490A6802430A6088
:1014D000096808400090009801B0704710B586B0C8
:1014E00004001422002101A8FFF74EFF20681549CF
:1014F000884221D18020C00111490A6802430A6054
:1015000009680840009000988020C0020E490A68CF
:1015100002430A600968084000900098E020000239
:101520000190022002900020039003210491059075
:1015300001A90648FFF7D8FD06B010BD18100240FB
:101540001C10024000380040141002400004004803
:101550001206130A1A43130C1A4300BF094205D09E
:10156000830705D00270401C491EF9D17047000066
:101570001300103906D330B41400150010393CC0E4
:10158000FCD230BC490700D30CC000D504C0890090
:1015900002D30280801C002900D50270704770B40D
:1015A0000123002413E00168001D194202D04D46BA
:1015B0006D1E49190C60091D121F042AFAD20D0074
:1015C000960701D50C80AD1C1A4000D02C70026823
:1015D000001D002AE7D170BC704730B401220EE034
:1015E0000368C31844680830144202D04D466D1E8B
:1015F00064191D6825601B1D241D091FF9D1016890
:10160000001D0029ECD130BC7047FEE700B5FEE7B5
:1016100000B5FEE77047704780B500F00DF804484C
:101620000168491C016003480168491C016001BD53
:101630001C0100202001002003480168034A1278A1
:1016400089180160704700BF2401002008000020B5
:1016500010B5074979441831064C7C44163404E02F
:10166000081D0A68891888470100A142F8D110BDF9
:10167000080000002800000027FFFFFF1C010000F9
:101680000C0000200000000053FFFFFF0C000000D2
:10169000A4000000000000200000000000F00DF891
:1016A000002801D0FFF7D4FF00BF00BF002000BF1B
:1016B00000BFFFF705FB00F002F80120704780B57E
:1016C00000F002F801BDFEE70746384600F002F8D8
:1016D000FBE7FEE780B500BF00BF024A11001820FB
:1016E000ABBEFBE72600020002030405060708095B
:1016F0000A0B0C0D0E0F101001020304050607085B
:10170000090A0B0C0D0E0F10000000000000000075
:101710000102030406070809014880470148004701
:10172000751700082917000800BF00BF00BF00BFE1
:10173000FFF7B4FF0400000000127A00010000006F
:10174000FEE7FEE7FEE7FEE7FEE7FEE7FEE7FEE771
:10175000FEE7FEE7FEE7FEE7FEE7FEE7FEE7FEE761
:10176000FEE7FEE7FEE7FEE7FEE7FEE7FEE7FEE751
:06177000FEE7FEE77047F2
:0400000508001729AF
:00000001FF
