:020000040800F2
:10000000E004002099110008B5100008B71000089E
:1000100000000000000000000000000000000000E0
:10002000000000000000000000000000B9100008FF
:100030000000000000000000BB100008BD10000818
:100040001707000893070008B30A0008B310000858
:10005000631100086F110008C5110008C7110008DE
:10006000C9110008CB110008CD110008CF110008FC
:10007000D1110008D3110008D5110008D7110008CC
:10008000D9110008DB110008DD110008DF1100089C
:10009000E1110008E3110008E5110008E71100086C
:1000A000E9110008EB110008ED110008EF1100083C
:1000B000F1110008F3110008F5110008F71100080C
:1000C000F8B506001BD09F4C3078C00719D58027A3
:1000D000BF0260680C21014004290BD060680C212C
:1000E0000140082948D16068C021490201407808D0
:1000F000814241D12068074003D07068002800D1B8
:10010000E9E1307880071FD5F827FF4360680C21AC
:1001100001400CD060680C21014008295FD1606863
:10012000C0214902014080200002814257D120684D
:10013000800703D5F068012800D0CCE12068074093
:100140003069C000384320603078000778D5022736
:10015000F0690028606A64D001210143616200F007
:1001600097FA0500606A38406AD100F091FA401BA6
:100170000228F7D90320F2BD72687908012A08D055
:10018000B248002A09D0052A07D120688A00024314
:10019000226020680143216006E02168AC4A0A40E1
:1001A0002260216808402060706800280BD000F0B1
:1001B0006FFA050020683840A3D100F069FA401BAF
:1001C0006528F7D3D6E700F063FA050020683840C9
:1001D00097D000F05DFA401B6528F7D3CAE7F068B6
:1001E000002820680ED001210143216000F050FA60
:1001F000050020688007A1D400F04AFA401B0228BD
:10020000F7D9B7E701218843206000F041FA0500E3
:100210002068800798D500F03BFA401B0228F7D9E8
:10022000A8E701218843606200F032FA0500606AA5
:10023000384005D000F02CFA401B0228F7D999E786
:100240003078400761D50020009080204005E169AA
:10025000014008D1E1690143E161E1690840009092
:100260000098012000909E4F3868C0050FD4386870
:10027000A10D0143396000F00BFA05003868C00594
:1002800005D400F005FA401B6528F7D372E7B06883
:10029000012809D0002801D1206A0AE00528206A37
:1002A00007D1042101432162206A01210143216217
:1002B00006E0012188432062206A042188432062ED
:1002C0000227B06800280CD000F0E2F90500206A8F
:1002D000384013D100F0DCF9401B82498842F6D344
:1002E00048E700F0D5F90500206A384006D000F054
:1002F000CFF9401B7B498842F6D33BE700980028A2
:1003000003D0E06978490140E1613078C00621D529
:100310007069F825ED430422012851D1606B024336
:100320006263606B01210143616300F0B1F9070072
:10033000606B800708D400F0ABF9C01B0228F7D926
:1003400018E700BF00100240606B0540B069C000B4
:10035000284360630C273078800614D560683840E5
:100360000C2809D060683840082843D160687903B8
:100370000140780381423DD1606BC00303D5306AF0
:10038000012800D0A7E0706A002800D1A5E06168CC
:100390000F40082F00D189E08027BF04954902282B
:1003A000206875D10140216000F072F905002068D5
:1003B00038404FD000F06CF9401B0228F7D9D9E63D
:1003C0000421C9438842606B02D101406163BBE7ED
:1003D00002436263606B01218843606300F058F957
:1003E0000500606B8007B5D500F052F9401B02286C
:1003F000F7D9BFE6802040020090306A002813D071
:10040000802040020090606B00990143616300F01E
:100410003FF90500606B00990140B4D100F038F954
:10042000401B0228F6D9A5E6606B094901406163CB
:1004300000F02EF90500606B00990140A3D000F098
:1004400027F9401B0228F6D994E600BFFFFFFBFF07
:10045000FFFFFEFFE06A0F218843316B0143E16239
:10046000606879490140F06A0843B16A01436160FC
:10047000206879080143216000F00AF9050020682E
:1004800038402AD100F004F9401B0228F7D971E660
:100490000140216000F0FCF80500206838401CD0C5
:1004A00000F0F6F8401B0228F7D963E6012812D0C5
:1004B0006068E16AC02252020240B36A9A420AD1DD
:1004C0000907090F326B914205D1F02189030140E0
:1004D000F06A814201D00120F2BD0020F2BD00008F
:1004E0000070004089130000FFFFFFEFF8B5040023
:1004F00065D0009155480068C107C90F0098814236
:100500000CD25248016801229143009A0A430260CA
:100510000068C107C90F0098814250D121684C4D35
:10052000022001420CD0490704D56968E022D200BC
:100530000A436A606968F0229143A2680A436A60CC
:100540000127216839402AD06168012902D1286831
:10055000800308E0022902D12868800103E0032912
:1005600003D1686BC00303D429E02A68104026D069
:100570006868032290430143696000F089F806002F
:1005800068680C21014060688000814207D000F05B
:100590007FF8801B2F498842F2D30320F2BD2B48FD
:1005A000009902683A4091420BD20168B943009A1F
:1005B0000A430260006807400098874201D001208A
:1005C000F2BD2078400705D5686823490140E068FE
:1005D0000843686000F010F820496A681206120F9C
:1005E000895CC8401E490860002000F057F80020D0
:1005F000F2BD0000FFFFFFFEF0B51A490B681A4874
:100600001A4A0C241C40082C02D00C2C1AD0F0BD25
:100610000F2500BF16A49E0C2E40A45D18A6896A63
:100620000D40715DC0256D022E001E4080277F02A7
:10063000BE4203D02B40AB4200D1100000F050F876
:100640006043F0BD1000F0BDFF7FC2FF00200240FC
:100650000010024089130000FFF8FFFF8811000816
:100660000C0000200410024000127A00006CDC0232
:1006700002030405060708090A0B0C0D0E0F1010E3
:100680000102030405060708090A0B0C0D0E0F10E2
:1006900001484068704700BF0000002038B50500E1
:1006A0000D4CFA208000217800F01AF801000B4868
:1006B000006800F015F800F050F800280AD1042D69
:1006C00008D2002229000020C04300F042F8A560B3
:1006D000002032BD012032BD000000200C000020AF
:1006E000094214D088420FD30122030C01D1000427
:1006F0001204002300185B418B4200D35B1A524165
:10070000F8D319001000704701000020704708B5A9
:1007100000F03EF808BDFEE710B5C20018231340F4
:10072000FF249C40E2438907090E9940030004D44A
:1007300014489B089B00C01806E0134B0007000FED
:10074000083880088000181803681A4011430160B7
:1007500010BD80B5FFF7E0FF01BD10B5401E802140
:100760004904884201D3012010BD084C6060032178
:100770000020C043FFF7D0FF0020A06007212160C8
:1007800010BD000000E400E01CED00E010E000E01F
:100790007047FEE7F8B586B0A24C260084360025E7
:1007A000B563F5623563756300F084F900F050F9C4
:1007B00014220021684600F08DF9802109039A482F
:1007C00002680A4302600268114005910599802180
:1007D000890202680A430260026811400591059986
:1007E0008021C90202680A43026000680140059145
:1007F00005988E4F002239008D4800F034FA00220F
:100800008C499020C00500F02EFA0022FF218A4872
:1008100000F029FA00970127019702950395694690
:10082000834800F061F90620009084480190029509
:1008300069467F4800F058F97E480090019702957C
:10084000039569469020C00500F04EF9FF20009006
:100850000197029503956946774800F045F9784875
:1008600060667848A066E56627676567A567E567FF
:100870008020255035602000643000F009FA0028FF
:1008800001D000F014F900212000643000F05AFA81
:10089000002801D000F00BF900212000643000F0A6
:1008A0006EFA002801D000F002F96748206082202B
:1008B00040006060A560C0208000E0602561656147
:1008C0007802A0610820E06125626562A5620721C7
:1008D000E16225636063200000F07AFA002801D00D
:1008E00000F0E5F8594C67600C20A060B06BFA216D
:1008F0008900884203DBF06A401CF062B563F06A4D
:10090000002803DD67600D20A060F56200F004F8A8
:10091000012000F0E1FAE9E770B54C4D6868012864
:100920007DD10026444C2878002805D002282FD0FD
:1009300018D3032843D071E001228021200000F069
:1009400092F900224021200000F08DF900222021A0
:10095000200000F088F901221021200000F083F926
:1009600001202AE000228021200000F07CF90022F2
:100970004021200000F077F901222021200000F022
:1009800072F901221021200000F06DF9022014E01C
:1009900000228021200000F066F901224021200081
:1009A00000F061F901222021200000F05CF9002212
:1009B0001021200000F057F9032028702EE00122BA
:1009C0008021200000F04FF901224021200000F09A
:1009D0004AF900222021200000F045F900221021D0
:1009E000200000F040F92E70A868401EA860002882
:1009F00014DC6E6000228021200000F034F9002217
:100A00004021200000F02FF900222021200000F0DA
:100A10002AF900221021200000F025F9EE6070BDB7
:100A2000000000001000002014100240E1F300005C
:100A300000080048FFFF00000004004800001210FA
:100A4000005800405D3E302000380040D0000020BB
:100A500030B591B03422002104A800F03BF81022F8
:100A60000021684600F036F8022404940120079023
:100A7000102008900D94C0020E9040010F900025A8
:100A8000109504A8FFF71CFB002801D072B6FEE702
:100A90000720009001940295039501216846FFF715
:100AA00025FD002801D072B6FEE711B030BD72B648
:100AB000FEE7FEE780B50648016810220A4302609F
:100AC0000020FFF7EBFD00F01BFA002002BD000044
:100AD0000020024010B504000800110002002000B0
:100AE00000F08AFA200010BDFFB500220123019317
:100AF0002BE0052603E05F4EB042FAD10426AE405B
:100B00002643029C26605C4C2668DC4326404D68E8
:100B1000ED0300D51E43584D2E606E6826404F6889
:100B2000BF0300D51E436E60AE6826404F68FF02CB
:100B300000D51E43AE60EE6834404E68B60202D562
:100B400026001C003443EC60521C0B681C00D4408F
:100B500000D187E0019D95402B40F5D0540003273C
:100B6000A740FE4302964E68012E05D0022E03D008
:100B7000112E01D0122E0FD18768029E3E40CF6801
:100B8000A740374387604668AE434D682D09019FF3
:100B90002F40974037434760C568029E2E408D68BE
:100BA000A5403543C56095006E4675704D68022DB1
:100BB00001D0122D1AD1D508AD0045192E6A039621
:100BC0006E4677781C263E406F463E70039EB446C4
:100BD0000F276E463678B7406646BE43B4460F6967
:100BE0006E463678B740664637432F62076803265D
:100BF000029D3D404F683740BC4627006446BC40DC
:100C00002C4304604C68E4009ED51C4C2468019D74
:100C100025431A4C25602468019D25400295029CBD
:100C2000174C9508AD006419029424686D466F78DE
:100C30000C253D400F27AF40BC439027FF05B8422D
:100C400001D100265BE70F4FB84201D1019E56E764
:100C50000D4FB84201D1022651E70C4FB84200D0E7
:100C600049E74CE7FFBD002A01D0816170478162EE
:100C700070470000001000480004014018100240B6
:100C8000080001400004004800080048000C00482B
:100C900070B5040001D1012070BD2500403500264B
:100CA0006878002803D12E70200000F03EF924203F
:100CB00068702068016801229143016060681E49E4
:100CC00001402068016121681C488A6802408A60EE
:100CD000E1680129A16801D1C24301E08422120226
:100CE0000A4321688A60E168022903D18021090151
:100CF0002268516021684A68114B13434B60216898
:100D0000CA681040C860206961690143A069000297
:100D100008432168C860E069216A014320680160D6
:100D20002068016801220A4302606E60202068701A
:100D30002663AE70002070BDFFFFFFF0FF7FFFFF56
:100D40000080000270B5020040325378202B14D18D
:100D50004023C35C012B10D0012313702424547052
:100D6000046825689D43256004682568164E2E405A
:100D700026600468256829431CE0022070BD70B518
:100D8000020040325378202B12D14023C35C012B48
:100D90000ED00123137024245470046825689D43E9
:100DA000256004682568094E2E400902314301E0A0
:100DB000022070BD2160006801680B4303602020A1
:100DC00050700020107070BDFFEFFFFFFFF0FFFFBD
:100DD000F8B5040001D10120F2BD82277F00002573
:100DE000606A002804D16068B84203D0E56101E080
:100DF00025616561A56226005C367078002803D104
:100E00003570200000F0C0F8022070702068016882
:100E1000402291430160E368E022D200F02000010B
:100E2000934203D90021834204D104E08021490187
:100E3000934200D0A562012263681F40BC46A768A8
:100E400084231B023B4067463B439C46277C02238E
:100E50001F4063461F43636913403B439C46A76999
:100E600053021F4063461F43BC46277F38233B4045
:100E700067463B439C462023E75C80231F40634634
:100E80001F43BC46A36A57033B4067463B43276862
:100E90003B60A3691F0C04231F40BC462423E35C72
:100EA00010273B4067463B439C463423E75C0823BE
:100EB0001F4063461F43E3681840384301432068DE
:100EC00041602068C169034B0B40C361756072705B
:100ED0000020F2BDFFF7FFFF38B50500FFF7D8FB94
:100EE00004000020C043854202D0044800782D1839
:100EF000FFF7CEFB001BA842FAD331BD0000002053
:100F000081B0012037490A6802430A600A6810402C
:100F100000900098802040054A6802434A60496872
:100F200008400090009801B0704710B586B00400EA
:100F30001422002101A8FFF7CDFD20682A4988422C
:100F400020D18020C002294C216801432160216802
:100F5000084000900098C0200001019012200290EB
:100F60000120039003210491059001A92048FFF777
:100F7000BBFD8020C003A1680143A160A1680840B7
:100F80000090009806B010BD10B586B00400142281
:100F9000002101A8FFF79EFD2068164988421FD155
:100FA0001248090C82680A438260826811400091ED
:100FB00000998021C90202680A430260006801406A
:100FC00000910098E0200002019002200290002091
:100FD000039003210491059001A90548FFF784FDC2
:100FE00006B010BD18100240005800401410024016
:100FF00000040048003800401206130A1A43130C7C
:101000001A4300BF094205D0830705D00270401C77
:10101000491EF9D1704700001300103906D330B4CF
:101020001400150010393CC0FCD230BC490700D375
:101030000CC000D504C0890002D30280801C0029A6
:1010400000D50270704770B40123002413E00168DA
:10105000001D194202D04D466D1E49190C60091D34
:10106000121F042AFAD20D00960701D50C80AD1C80
:101070001A4000D02C700268001D002AE7D170BC15
:10108000704730B401220EE00368C318446808308A
:10109000144202D04D466D1E64191D6825601B1D4B
:1010A000241D091FF9D10168001D0029ECD130BCB5
:1010B0007047FEE7FEE7FEE77047704780B500F037
:1010C0000DF804480168491C016003480168491C87
:1010D000016001BDCC000020DC0000200248416816
:1010E00002788918416070470000002010B5074958
:1010F00079441831064C7C44163404E0081D0A6813
:10110000891888470100A142F8D110BD08000000ED
:101110002800000033FFFFFFD00000001000002077
:10112000000000005FFFFFFF100000007C000000D7
:10113000000000200000000000F00DF8002801D0A1
:10114000FFF7D4FF00BF00BF002000BF00BFFFF7C4
:1011500021FB00F002F80120704780B500F002F892
:1011600001BDFEE70746384600F002F8FBE7FEE760
:1011700080B500BF00BF024A11001820ABBEFBE7DC
:101180002600020070470000000000000000000080
:101190000102030406070809014880470148004787
:1011A00085110008B91100080100000000000000CE
:1011B0000400000000127A0000BF00BF00BF00BFA3
:1011C000FFF7BAFFFEE7FEE7FEE7FEE7FEE7FEE712
:1011D000FEE7FEE7FEE7FEE7FEE7FEE7FEE7FEE7E7
:1011E000FEE7FEE7FEE7FEE7FEE7FEE7FEE7FEE7D7
:0811F000FEE7FEE7FEE7FEE763
:04000005080011B925
:00000001FF
