:020000040800F2
:10000000F00400205D100008790F00087B0F000845
:1000100000000000000000000000000000000000E0
:100020000000000000000000000000007D0F00083C
:1000300000000000000000007F0F0008810F000892
:1000400017070008930700080B0B0008770F00083C
:100050002710000833100008891000088B100008D2
:100060008D1000088F1000089110000893100008F0
:100070009510000897100008991000089B100008C0
:100080009D1000089F100008A1100008A310000890
:10009000A5100008A7100008A9100008AB10000860
:1000A000AD100008AF100008B1100008B310000830
:1000B000B5100008B7100008B9100008BB10000800
:1000C000F8B506001BD09F4C3078C00719D58027A3
:1000D000BF0260680C21014004290BD060680C212C
:1000E0000140082948D16068C021490201407808D0
:1000F000814241D12068074003D07068002800D1B8
:10010000E9E1307880071FD5F827FF4360680C21AC
:1001100001400CD060680C21014008295FD1606863
:10012000C0214902014080200002814257D120684D
:10013000800703D5F068012800D0CCE12068074093
:100140003069C000384320603078000778D5022736
:10015000F0690028606A64D001210143616200F007
:1001600097FA0500606A38406AD100F091FA401BA6
:100170000228F7D90320F2BD72687908012A08D055
:10018000B248002A09D0052A07D120688A00024314
:10019000226020680143216006E02168AC4A0A40E1
:1001A0002260216808402060706800280BD000F0B1
:1001B0006FFA050020683840A3D100F069FA401BAF
:1001C0006528F7D3D6E700F063FA050020683840C9
:1001D00097D000F05DFA401B6528F7D3CAE7F068B6
:1001E000002820680ED001210143216000F050FA60
:1001F000050020688007A1D400F04AFA401B0228BD
:10020000F7D9B7E701218843206000F041FA0500E3
:100210002068800798D500F03BFA401B0228F7D9E8
:10022000A8E701218843606200F032FA0500606AA5
:10023000384005D000F02CFA401B0228F7D999E786
:100240003078400761D50020009080204005E169AA
:10025000014008D1E1690143E161E1690840009092
:100260000098012000909E4F3868C0050FD4386870
:10027000A10D0143396000F00BFA05003868C00594
:1002800005D400F005FA401B6528F7D372E7B06883
:10029000012809D0002801D1206A0AE00528206A37
:1002A00007D1042101432162206A01210143216217
:1002B00006E0012188432062206A042188432062ED
:1002C0000227B06800280CD000F0E2F90500206A8F
:1002D000384013D100F0DCF9401B82498842F6D344
:1002E00048E700F0D5F90500206A384006D000F054
:1002F000CFF9401B7B498842F6D33BE700980028A2
:1003000003D0E06978490140E1613078C00621D529
:100310007069F825ED430422012851D1606B024336
:100320006263606B01210143616300F0B1F9070072
:10033000606B800708D400F0ABF9C01B0228F7D926
:1003400018E700BF00100240606B0540B069C000B4
:10035000284360630C273078800614D560683840E5
:100360000C2809D060683840082843D160687903B8
:100370000140780381423DD1606BC00303D5306AF0
:10038000012800D0A7E0706A002800D1A5E06168CC
:100390000F40082F00D189E08027BF04954902282B
:1003A000206875D10140216000F072F905002068D5
:1003B00038404FD000F06CF9401B0228F7D9D9E63D
:1003C0000421C9438842606B02D101406163BBE7ED
:1003D00002436263606B01218843606300F058F957
:1003E0000500606B8007B5D500F052F9401B02286C
:1003F000F7D9BFE6802040020090306A002813D071
:10040000802040020090606B00990143616300F01E
:100410003FF90500606B00990140B4D100F038F954
:10042000401B0228F6D9A5E6606B094901406163CB
:1004300000F02EF90500606B00990140A3D000F098
:1004400027F9401B0228F6D994E600BFFFFFFBFF07
:10045000FFFFFEFFE06A0F218843316B0143E16239
:10046000606879490140F06A0843B16A01436160FC
:10047000206879080143216000F00AF9050020682E
:1004800038402AD100F004F9401B0228F7D971E660
:100490000140216000F0FCF80500206838401CD0C5
:1004A00000F0F6F8401B0228F7D963E6012812D0C5
:1004B0006068E16AC02252020240B36A9A420AD1DD
:1004C0000907090F326B914205D1F02189030140E0
:1004D000F06A814201D00120F2BD0020F2BD00008F
:1004E0000070004089130000FFFFFFEFF8B5040023
:1004F00065D0009155480068C107C90F0098814236
:100500000CD25248016801229143009A0A430260CA
:100510000068C107C90F0098814250D121684C4D35
:10052000022001420CD0490704D56968E022D200BC
:100530000A436A606968F0229143A2680A436A60CC
:100540000127216839402AD06168012902D1286831
:10055000800308E0022902D12868800103E0032912
:1005600003D1686BC00303D429E02A68104026D069
:100570006868032290430143696000F089F806002F
:1005800068680C21014060688000814207D000F05B
:100590007FF8801B2F498842F2D30320F2BD2B48FD
:1005A000009902683A4091420BD20168B943009A1F
:1005B0000A430260006807400098874201D001208A
:1005C000F2BD2078400705D5686823490140E068FE
:1005D0000843686000F010F820496A681206120F9C
:1005E000895CC8401E490860002000F057F80020D0
:1005F000F2BD0000FFFFFFFEF0B51A490B681A4874
:100600001A4A0C241C40082C02D00C2C1AD0F0BD25
:100610000F2500BF16A49E0C2E40A45D18A6896A63
:100620000D40715DC0256D022E001E4080277F02A7
:10063000BE4203D02B40AB4200D1100000F050F876
:100640006043F0BD1000F0BDFF7FC2FF00200240FC
:100650000010024089130000FFF8FFFF4C10000853
:100660000C0000200410024000127A00006CDC0232
:1006700002030405060708090A0B0C0D0E0F1010E3
:100680000102030405060708090A0B0C0D0E0F10E2
:1006900001484068704700BF0000002038B50500E1
:1006A0000D4CFA208000217800F01AF801000B4868
:1006B000006800F015F800F050F800280AD1042D69
:1006C00008D2002229000020C04300F042F8A560B3
:1006D000002032BD012032BD000000200C000020AF
:1006E000094214D088420FD30122030C01D1000427
:1006F0001204002300185B418B4200D35B1A524165
:10070000F8D319001000704701000020704708B5A9
:1007100000F03EF808BDFEE710B5C20018231340F4
:10072000FF249C40E2438907090E9940030004D44A
:1007300014489B089B00C01806E0134B0007000FED
:10074000083880088000181803681A4011430160B7
:1007500010BD80B5FFF7E0FF01BD10B5401E802140
:100760004904884201D3012010BD084C6060032178
:100770000020C043FFF7D0FF0020A06007212160C8
:1007800010BD000000E400E01CED00E010E000E01F
:100790007047FEE7BC4A18235943511808610120ED
:1007A000C860704770B500260025B7481821694316
:1007B0004418E068012866D1207D002805D0022871
:1007C0002FD018D3032843D05DE00122A1882068F0
:1007D00000F061FA0122E188206800F05CFA002252
:1007E0002189206800F057FA00226189206800F012
:1007F00052FA01202AE00022A188206800F04BFA7A
:100800000122E188206800F046FA0122218920684F
:1008100000F041FA00226189206800F03CFA0220D1
:1008200014E00022A188206800F035FA0022E18857
:10083000206800F030FA01222189206800F02BFAAC
:1008400001226189206800F026FA032020751AE051
:100850000122A188206800F01EFA0022E1882068A9
:1008600000F019FA00222189206800F014FA012210
:100870006189206800F00FFA26752069401E20610A
:10088000002800DCE6606D1C042D8EDB70BDF8B521
:1008900086B07E4D0024AC67AC66EC662C677A4867
:1008A0007B490160042181800827C78010220281D2
:1008B00020224281C46004610475754A826140222D
:1008C00082838022C2838A010284CA0142844462F4
:1008D00084622C23C4549022D205026301268686AA
:1008E0000222C28601874787C46304644422845479
:1008F0009021C905816410214C22815220214E2271
:1009000081524021502281528021522281524465DD
:1009100084655C22845400F0D3F900F0C5F81422F9
:100920000021684600F0DCF9F1045A4802680A43E5
:1009300002600268114005910599710402680A433A
:1009400002600268114005910599B10402680A43EA
:100950000260006801400591059800224E494F4809
:1009600000F099F90022FF219020C00500F093F9D2
:100970000022FF218900464800F08DF9464800908A
:100980000196029403946946444800F0BFF806209B
:1009900000904348019002946946404800F0B6F840
:1009A000FF20009001960294039469469020C005B0
:1009B00000F0ACF81020009001940294694637488A
:1009C00000F0A4F8FF2080000090019602940394A8
:1009D00069462F4800F09AF832486860822040004B
:1009E000A860EC60C020800028616C61AC6170027E
:1009F000E8612F626C62AC62EC62072028636C6372
:100A0000AF63281D00F076F9002801D000F07BF8D4
:100A100000210D20FFF7BEFE01210D20FFF7BAFED9
:100A200002210D20FFF7B6FE03210D20FFF7B2FED5
:100A300010211A4800F029F92870A86FFA218900BE
:100A4000884203DBA86E401CA866AC67A86E042829
:100A500013DD686F01280FD000210D20FFF79AFEEB
:100A600001210D20FFF796FE02210D20FFF792FED7
:100A700003210D20FFF78EFEAC66FFF793FE0120E9
:100A800000F0BCF9D9E700008C0000201000002025
:100A90000004004814100240C10300000008004890
:100AA000000012100038004030B591B0342200210F
:100AB00004A800F015F910220021684600F010F992
:100AC0000224049401200790102008900D94C00285
:100AD0000E9040010F900025109504A8FFF7F0FA42
:100AE000002801D072B6FEE707200090019402951D
:100AF000039501216846FFF7F9FC002801D072B682
:100B0000FEE711B030BD72B6FEE7FEE7FFB500228A
:100B1000012301932BE0052603E0624EB042FAD197
:100B20000426AE402643029C26605F4C2668DC43C8
:100B300026404D68ED0300D51E435B4D2E606E6868
:100B400026404F68BF0300D51E436E60AE68264046
:100B50004F68FF0200D51E43AE60EE6834404E6819
:100B6000B60202D526001C003443EC60521C0B6810
:100B70001C00D44000D187E0019D95402B40F5D06A
:100B800054000327A740FE4302964E68012E05D06D
:100B9000022E03D0112E01D0122E0FD18768029E93
:100BA0003E40CF68A740374387604668AE434D68F4
:100BB0002D09019F2F40974037434760C568029E2B
:100BC0002E408D68A5403543C56095006E46757012
:100BD0004D68022D01D0122D1AD1D508AD0045194E
:100BE0002E6A03966E4677781C263E406F463E700E
:100BF000039EB4460F276E463678B7406646BE431E
:100C0000B4460F696E463678B740664637432F6262
:100C100007680326029D3D404F683740BC462700C9
:100C20006446BC402C4304604C68E4009ED51F4CD5
:100C30002468019D25431D4C25602468019D2540A5
:100C40000295029C1A4C9508AD0064190294246820
:100C50006D466F780C253D400F27AF40BC43902771
:100C6000FF05B84201D100265BE7124FB84201D11F
:100C7000019E56E7104FB84201D1022651E70F4FAF
:100C8000B84200D049E74CE7FFBD0069084000D0FA
:100C90000120C0B27047002A01D081617047816293
:100CA0007047000000100048000401401810024086
:100CB000080001400004004800080048000C0048FB
:100CC00080B50648016810220A4302600020FFF741
:100CD000E5FC00F0A7F8002002BD00000020024063
:100CE00010B50400080011000200200000F0E6F832
:100CF000200010BDF8B5040001D10120F2BD82270B
:100D00007F000025606A002804D16068B84203D0E3
:100D1000E56101E025616561A56226005C367078B9
:100D2000002803D13570200000F091F80220707087
:100D300020680168402291430160E368E022D2000C
:100D4000F0200001934203D90021834204D104E042
:100D500080214901934200D0A562012263681F40AF
:100D6000BC46A76884231B023B4067463B439C4626
:100D7000277C02231F4063461F43636913403B43A4
:100D80009C46A76953021F4063461F43BC46277F0A
:100D900038233B4067463B439C462023E75C802347
:100DA0001F4063461F43BC46A36A57033B40674648
:100DB0003B4327683B60A3691F0C04231F40BC46CC
:100DC0002423E35C10273B4067463B439C46342387
:100DD000E75C08231F4063461F43E368184038431D
:100DE0000143206841602068C169034B0B40C36127
:100DF000756072700020F2BDFFF7FFFF38B5050087
:100E0000FFF746FC04000020C043854202D004489E
:100E100000782D18FFF73CFC001BA842FAD331BD27
:100E20000000002081B0012020490A6802430A60C6
:100E30000A68104000900098802040054A680243EC
:100E40004A60496808400090009801B0704710B5AA
:100E500086B004001422002101A8FFF741FF20689A
:100E6000134988421FD11348090C82680A438260E3
:100E700082681140009100998021C90202680A43EA
:100E800002600068014000910098E020000201909B
:100E9000022002900020039003210491059001A9F3
:100EA0000548FFF733FE06B010BD000018100240E1
:100EB0000038004014100240000400481206130AD3
:100EC0001A43130C1A4300BF094205D0830705D00B
:100ED0000270401C491EF9D1704700001300103900
:100EE00006D330B41400150010393CC0FCD230BC1D
:100EF000490700D30CC000D504C0890002D302808A
:100F0000801C002900D50270704770B401230024B2
:100F100013E00168001D194202D04D466D1E4919AB
:100F20000C60091D121F042AFAD20D00960701D584
:100F30000C80AD1C1A4000D02C700268001D002AE5
:100F4000E7D170BC704730B401220EE00368C318CB
:100F500044680830144202D04D466D1E64191D6865
:100F600025601B1D241D091FF9D10168001D0029E2
:100F7000ECD130BC7047FEE7FEE7FEE770477047F4
:100F800080B500F00DF804480168491C0160034871
:100F90000168491C016001BD88000020EC000020B0
:100FA00002484168027889184160704700000020BB
:100FB00010B5074979441831064C7C44163404E0D6
:100FC000081D0A68891888470100A142F8D110BDA0
:100FD000080000002800000033FFFFFFE0000000D1
:100FE00010000020000000005FFFFFFF1000000065
:100FF0007C000000000000200000000000F00DF860
:10100000002801D0FFF7D4FF00BF00BF002000BFC1
:1010100000BFFFF73CFC00F002F80120704780B5EC
:1010200000F002F801BDFEE70746384600F002F87E
:10103000FBE7FEE780B500BF00BF024A11001820A1
:10104000ABBEFBE726000200704700000000000076
:101050000000000001020304060708090148804758
:1010600001480047491000087D10000801000000F9
:10107000000000000400000000127A0000BF00BF62
:1010800000BF00BFFFF7BAFFFEE7FEE7FEE7FEE79F
:10109000FEE7FEE7FEE7FEE7FEE7FEE7FEE7FEE728
:1010A000FEE7FEE7FEE7FEE7FEE7FEE7FEE7FEE718
:0C10B000FEE7FEE7FEE7FEE7FEE7FEE7D6
:040000050800107D62
:00000001FF
